S01B00005472616E736D69745F746F5F646973706C61792E7372656320
S11300000C947A000C9499000C9499000C94990027
S11300100C9499000C9499000C9499000C949900F8
S11300200C9499000C9499000C9499000C949900E8
S11300300C9499000C9499000C9499000C949900D8
S11300400C9499000C9499000C9499000C949900C8
S11300500C9499000C9499000C9499000C949900B8
S11300600C9499000C9499000C9499000C949900A8
S11300700C9499000C9499000C9499000C94990098
S11300800C9499000C9499000C9499000C94990088
S11300900C9499000C9499000C94B7010C94990059
S11300A00C9499000C9499000C9499000C94990068
S11300B00C9499000C9499000C9499000C94990058
S11300C00C9499000C9499000C9499000C94990048
S11300D00C9499000C9499000C9499000C94990038
S11300E00C9499000C9499000C9499000C94990028
S11300F00C94990011241FBECFEFCDBFDFE7DEBF04
S113010010E4A0E0B0E4E6E9F4E000E00BBF02C0D4
S113011007900D92A230B107D9F720E4A2E0B0E431
S113012001C01D92AA32B207E1F70E94E1010C94CA
S113013049020C94000080931A4090931B40089548
S113014080931C4090931D40089580932040909389
S11301502140089580931840909319400895CF93B7
S1130160DF93C82FD92FE0911C40F0911D4084E209
S11301700995E0911C40F0911D408D2F0995E09167
S11301801C40F0911D408C2F0995DF91CF9108956B
S1130190CF93C82FE0911C40F0911D40892F099501
S11301A0E0911C40F0911D408C2F0995CF9108954A
S11301B0EF92FF920F931F93CF93DF937C018B01F8
S11301C0C0E0D0E00AC0D701AC0FBD1FE0911C40D5
S11301D0F0911D408C9109952196C017D10798F391
S11301E0DF91CF911F910F91FF90EF900895CF92DF
S11301F0DF92EF92FF920F931F93CF93DF93EC0163
S1130200E0911A40F0911B4009956B017C0118C0E4
S1130210E0911A40F0911B400995DC01CB018C1947
S11302209D09AE09BF098E0120E030E080179107D7
S1130230A207B30728F082E08093024080E018C050
S1130240E0911840F09119400995882309F3E09151
S11302502040F0912140099591E0863009F090E02A
S1130260863011F480E001C081E080930240892F40
S1130270DF91CF911F910F91FF90EF90DF90CF907E
S11302800895EF92FF920F931F93CF93DF937C0116
S11302908B01FB0101900020E9F73197EF01C61BA8
S11302A0D70B8AEF9FEF0E94AF00C7010E94C800DE
S11302B0CE010E94C800BE01C8010E94D8008091EE
S11302C00040909101400E94F700DF91CF911F916F
S11302D00F91FF90EF9008959091440895FFFCCF03
S11302E0809342080895809144088823E4F780911C
S11302F0400808956091164070911740643F81E072
S11303007807C0F380E090E008958091034088234B
S1130310E1F3E091154091E09E0F90931540F0E0D9
S1130320EC5FFF4B8081903110F01092154090915A
S113033003409150909303400895E0E0FAE081E097
S11303408287118280E190E086A397A38DE0808369
S11303500895E0EAF4E080818F7D8083E0E4F8E0B2
S113036086818068868385818068858308951F924D
S11303700F920FB60F9211240BB60F928F939F9387
S1130380EF93FF93F89490914008809114408F5F0D
S11303908F70E82FF0E0EC5FFF4B90838093144064
S11303A0809103408F5F809303407894FF91EF9195
S11303B09F918F910F900BBE0F900FBE0F901F90C7
S11303C01895CF93DF9300D000D0CDB7DEB7E0EA25
S11303D0F4E0808180618083E0EEF5E082818061D9
S11303E082830E94A901E0E4F8E083E896E0808734
S11303F0918786818064868383E0809347080E9486
S11304009D0178948CE691E080932440909325405C
S113041083E791E080932640909327408AE791E018
S1130420809322409093234085E891E08093284074
S1130430909329408CE691E00E94A0008091264090
S1130440909127400E94A5008091224090912340E2
S11304500E949B0080912840909129400E94AA000C
S113046081E492E489839A8383E490E08B839C8380
S1130470BE016F5F7F4F80E090E00E9441012FE753
S11304808AE196E0215080409040E1F700C00000EE
S1090490EFCFF894FFCF4A
S1050496F4016B
S9030000FC
